:100000000C9434000C943E000C943E000C943E0082
:100010000C943E000C943E000C943E000C943E0068
:100020000C943E000C943E000C943E000C943E0058
:100030000C943E000C943E000C943E000C943E0048
:100040000C943E000C943E000C943E000C943E0038
:100050000C943E000C943E000C943E000C943E0028
:100060000C943E000C943E0011241FBECFEFD8E04C
:10007000DEBFCDBF0E9453000C9469000C940000B9
:100080001092C50087E68093C40086E08093C2008A
:1000900088E18093C10008959091C00095FFFCCF46
:1000A0008093C60008950E944000CAE0D0E00DC0D1
:1000B00081E40E944C002FEF83ED90E321508040BB
:1000C0009040E1F700C0000021971C161D0684F344
:0600D000FFCFF894FFCF02
:00000001FF
